:020000040040BA
:1000000060E64020392B4000372B4000372B400062
:10001000372B4000372B4000372B400000000000FA
:100020000000000000000000000000004508400043
:10003000372B400000000000A108400009094000E3
:10004000372B4000372B4000372B4000372B400028
:10005000372B4000372B4000372B4000372B400018
:10006000372B400000000000D5264000E926400064
:10007000FD264000372B400069304000372B400000
:100080001127400025274000372B4000372B400028
:10009000372B4000372B4000372B4000372B4000D8
:1000A000372B4000372B4000372B4000372B4000C8
:1000B000372B4000372B4000372B4000372B4000B8
:1000C000372B4000372B4000372B4000372B4000A8
:1000D00000000000372B400000000000372B4000DC
:1000E000372B4000372B4000372B4000372B400088
:1000F000372B4000372B4000372B4000372B400078
:10010000372B4000372B4000372B4000372B400067
:10011000372B40000000000000000000000000003D
:10012000372B4000372B4000372B4000372B400047
:10013000372B400000000000372B4000372B4000D9
:1001400010B5054C237833B9044B13B10448AFF311
:1001500000800123237010BDD00940200000000062
:10016000BC7940000C4B43B10C480D4910B5AFF3BE
:1001700000800C48036823B910BD0A48036833B9EE
:100180007047094B002BF7D0BDE810401847064BCD
:10019000002BF5D0184700BF00000000BC794000DC
:1001A000D4094020BC79400000000000014B1860D9
:1001B000704700BFEC094020024B1B6803EBC010E6
:1001C00042547047EC094020024B1B6803EBC010FF
:1001D000405C7047EC0940202DE9F0478418802CE2
:1001E00002DDC0F18004E2B222B3CD08A1EBC5016B
:1001F000012606FA01F1CEB2012B1DD0002B35D01D
:10020000022B17D10138C7B2D419E4B2DFF890A09D
:100210004FF00009DFF88C8021462846D04786EA57
:1002200000024B46D2B221462846C047013CE4B208
:10023000BC42F1D1BDE8F0870138C7B2D419E4B2AD
:10024000DFF85CA04FF00009DFF85880214628460F
:10025000D04746EA00024B46D2B221462846C04764
:10026000013CE4B2BC42F1D1BDE8F0870138C7B22D
:10027000D419E4B2DFF82880CE43DFF82890214675
:100280002846C04706EA00020023D2B2214628468B
:10029000C847013CE4B2BC42F1D1BDE8F08700BFE1
:1002A000D9044000D50340002DE9F8439DF82070A3
:1002B0008BB11C46904606464D1EEDB22C44E4B26E
:1002C000DFF818903B46424621463046C847013C7D
:1002D000E4B2AC42F6D1BDE8F88300BFD9014000DA
:1002E0002DE9F04F83B00446884691469B465B7AE1
:1002F0009BF808200021009149464046214DA8471F
:100300009BF8003013B103B0BDE8F08F9BF80820D4
:10031000D30812F0070F18BF01339BF809A09BF810
:100320000A70E71B17FB0AF717FB03F7DBF804302B
:1003300013FA87F71FE06400E4B20135EBB29E4286
:1003400010D9EBB208EB0300C0B213F0070F08BFDF
:1003500017F8014B14F0800FEDD0012249460A4BEB
:100360009847E8E709F101095FFA89F90AF1FF3ACC
:100370001AF0FF0AC7D09BF80860002EF2D00025C3
:100380002C46DEE7A9024000750440002DE9F84341
:10039000044690461D4689460D4F0E4608E06A7A8F
:1003A000013242445FFA82F8B14614F8013F6BB162
:1003B00020780A28F3D00D28F7D02B46424649462C
:1003C000B8472B7A99445FFA89F9EEE7BDE8F883DC
:1003D000E102400070B504460D4616461BB90D4BB0
:1003E0009847B04215D03246294620460A4B9847D6
:1003F00004F00F0040F0B000084CA047C5F3021015
:1004000040F01000A04705F00F00A0473046044B15
:10041000984770BDC9014000B9014000E5044000A3
:10042000050740002DE9F0410D480E4B98470E4B53
:10043000984740200D4B984700254FF001082F4664
:100440000B4E002443463A46E1B22846B0470134F9
:10045000802CF7D10135EDB2042DF2D1BDE8F08149
:10046000F0094020AD01400025054000E5044000B2
:10047000D5034000C3092AD11F2928D82DE9F0410E
:1004800014460546CE08A1EBC601012202FA01F787
:100490005FFA87F8014630460D4B98470246012C1B
:1004A00009D064B1022C0ED0002329463046094CF5
:1004B000A047BDE8F08148EA0002D2B2F4E720EAA2
:1004C0000702D2B2F0E788EA0002D2B2ECE7704746
:1004D000C9014000D503400008B5014B984708BD4D
:1004E000C901400038B505460822094B5A63094C3A
:1004F00001212046084B984701231A4629462046E9
:10050000064CA0474FF4FD70054B984738BD00BF1F
:1005100000100E4000800040D9284000EF28400025
:10052000010040202DE9F843664D4FF400362E615E
:10053000C5F8A060644B08271F61C3F8A0706E6601
:10054000C5F890606E656E62C5F880602A6F22F40F
:1005500000322A676A6F22F400326A675F66C3F866
:1005600090705F655F62C3F880701A6F22F00802B6
:100570001A675A6F22F008025A671F602E601F63C5
:100580002E63DFF87C8100234FF480024FF080510E
:1005900040464E4CA04700234FF400124FF08051CC
:1005A0004046A04700234FF000724FF08051404674
:1005B000A04700234FF480024FF080514046A047EF
:1005C00000234FF400124FF080514046A047002313
:1005D0004FF000724FF080514046A0473C4C4FF026
:1005E0000209C4F800904FF08008C4F800806368E6
:1005F00043F0010363603A4601212046354B98479A
:10060000002201212046344B984700220121204638
:10061000324B9847636823F0020363600022012194
:1006200020462F4B9847636823F08003636063681C
:1006300043F0100363602B492B482C4B9847C2B200
:10064000012120462A4B984720462A4B98470123F0
:1006500023606E6340F6B830274CA0472E6340F607
:10066000B830A0472E63A820244CA0471F20A047E5
:10067000D320A0470020A0474020A047A120A047AA
:10068000C820A047DA20A0474846A0478120A047BD
:100690008F20A047A420A047A620A047D520A04790
:1006A0004046A0478D20A0471420A047DB20A0474C
:1006B0004020A047D920A047F120A047AF20A04765
:1006C000BDE8F88300120E4000100E4045254000A2
:1006D000008000405F29400023294000412940005C
:1006E000A529400080D1F00840420F00B929400000
:1006F000CF294000AD28400001004020E504400023
:1007000000140E4038B505460822094B1A63094CFF
:1007100001212046084B984701231A4629462046C6
:10072000064CA0474FF4FD70054B984738BD00BFFD
:1007300000100E4000800040D9284000EF28400003
:100740000100402000F1080343604FF0FF32826057
:10075000C360036100230360704700230361704797
:1007600043684B609A688A609A6851609960086132
:10077000036801330360704730B40D68B5F1FF3F83
:1007800002D000F1080202E0026904E01A46536850
:100790001C68A542FAD253684B6099608A60516028
:1007A000086103680133036030BC70470369426825
:1007B000816891608268416851605A68904205D0B2
:1007C00000220261186801381860704782685A6018
:1007D000F6E74FF0800372B683F31188BFF36F8F93
:1007E000BFF34F8F62B6FEE706480068006880F3EB
:1007F000088862B661B6BFF34F8FBFF36F8F00DF1B
:1008000000BF000008ED00E0DFF80C00016841F4D3
:10081000700101607047000088ED00E04FF08073C8
:1008200040F8043C40F8081C054B40F80C3C40F8EC
:10083000202C6FF0020340F8243C4438704700BF7E
:10084000D3074000064B19680868B0E8F04F80F302
:100850000988BFF36F8F4FF0000080F31188704755
:10086000F8C34020704700BF4FF0800372B683F397
:100870001188BFF36F8FBFF34F8F62B6024A1368C0
:1008800001331360704700BF18004020034A13680B
:10089000013B13600BB983F31188704718004020A7
:1008A000EFF30980BFF36F8F154B1A681EF0100F1E
:1008B00008BF20ED108A20E9F04F10604DF8043D8C
:1008C0004FF0800072B680F31188BFF34F8FBFF3F3
:1008D0006F8F62B600F07CFF4FF0000080F311884C
:1008E00008BC19680868B0E8F04F1EF0100F08BF88
:1008F000B0EC108A80F30988BFF36F8F704700BF98
:10090000F8C34020704700BF08B5EFF311834FF0E4
:10091000800272B682F31188BFF36F8FBFF34F8FDF
:1009200062B6054B984718B14FF08052034B1A60DE
:10093000002383F3118808BD9114400004ED00E00A
:10094000034A044B1A600722043B1A60704700BF39
:10095000BF27090014E000E008B50C4B1A6842F408
:1009600060021A601A6842F060421A60084B9847A9
:100970000022084B1A60084B9847084A136843F056
:1009800040431360064B9847064B984720ED00E024
:1009900041094000180040200908400034EF00E001
:1009A000E9074000D307400038B5044610F0070FB0
:1009B00002D020F007040834114B9847114B1B68F4
:1009C00093B1114B1B681C44A34213D24BF2F77234
:1009D00094420FD80B4A15681D440B4B1C600B4BFF
:1009E00098474DB1284638BD094B23F00703054A07
:1009F0001360E6E7054B9847064B98470025F1E75B
:100A000075144000F00B4020F4C34020C91540008D
:100A1000FC0B4020673040007047000038B50446AA
:100A20001546026C62B9036823B10020A36B013341
:100A3000A36338BD4068184B984700236360F5E70F
:100A40006DB98068154B9847A368226C1344A36066
:100A5000626893421CD32368A3600020E6E7C06865
:100A60000E4B9847226C5242E3681344E3602168BE
:100A70008B4202D263681A44E260022D01D000204A
:100A8000D4E7A36B33B1A36B013BA3630020CDE795
:100A90000020CBE70020C9E7211B40006D35400056
:100AA00030B583B00190446DA26BE36B9A4203D3DF
:100AB0000025284603B030BD0A4601A920460B4B4D
:100AC00098470546A36CB3F1FF3F03D0A36C0133F5
:100AD000A364EEE7636A002BEBD004F12400044B1F
:100AE0009847002818BF0125E3E700BF1D0A400012
:100AF00055194000026C72B110B5C3681344C3604D
:100B00004468A34201D30368C3600C46C168204611
:100B1000014B984710BD70476D354000F8B504464D
:100B2000224B9847A36C002B1BDD214D214F224EF9
:100B30000BE0636AABB104F12400B04778B9A36C51
:100B4000013BA364A36C002B0BDD636D002BF0D085
:100B500000212046A8470128F1D1B847EFE7B84760
:100B6000EDE74FF0FF33A364144B98470F4B9847C2
:100B7000636C002B14DD236993B104F110060E4D54
:100B80000C4F07E0636C013B6364636C002B07DD73
:100B900023692BB13046A8470028F3D0B847F1E7C6
:100BA0004FF0FF336364054B9847F8BD6908400078
:100BB000A10A4000511A4000551940008D0840001C
:100BC00038B504460D46184B98472268216CE36BF4
:100BD00003FB01F3D01860600020A063A2605B1AE1
:100BE0001344E3604FF0FF336364A364A5B9236942
:100BF0001BB90E4B9847012038BD04F110000C4B77
:100C000098470128F5D14FF080520A4B1A60BFF384
:100C10004F8FBFF36F8FECE704F11000064DA8472C
:100C200004F12400A847E4E7690840008D0840006B
:100C30005519400004ED00E045074000F8B50546B1
:100C400017460E4659B100FB01F059300D4B98473D
:100C5000044618B100F15803036006E0F8BD5820BF
:100C6000084B9847044660B12460E563266401217F
:100C70002046054B984784F8507000236365204652
:100C8000F8BDF8BDA9094000C10B40002DE9F04FA7
:100C900085B004468A4601921F4600264A4DDFF879
:100CA0005481DFF834914AE03A4651462046474B9A
:100CB0009847636DA3B139462046454B98470128B4
:100CC00005D0444B9847012005B0BDE8F08F4FF0A8
:100CD0008052414B1A60BFF34F8FBFF36F8FF0E725
:100CE000636A53B90028ECD04FF080523A4B1A6037
:100CF000BFF34F8FBFF36F8FE3E704F12400374B4F
:100D000098470128DDD14FF08052334B1A60BFF372
:100D10004F8FBFF36F8FD4E72E4B98470020D3E758
:100D200002A8C04717E0002363641DE00023A3640A
:100D30001EE020462A4B98472A4B98470126A84791
:100D4000A26BE36B9A42AFD3022FADD0019B002B75
:100D5000E2D0002EE4D01F4B9847234B9847A8477A
:100D6000636CB3F1FF3FDED0A36CB3F1FF3FDDD086
:100D7000184B984701A902A81C4B9847E0B9A8470F
:100D8000D4F838B0E66B134B9847B345D1D10199ED
:100D900004F11000164B98472046114B9847114B11
:100DA00098470028CAD14FF08053C9F80030BFF3EC
:100DB0004F8FBFF36F8FC1E72046094B9847094B10
:100DC0009847002080E700BF690840001D0A4000E6
:100DD000A10A40008D08400004ED00E055194000D4
:100DE0001D0B4000C915400075144000ED1940006E
:100DF00081184000D5194000F8B5EFF311874FF086
:100E0000800472B684F31188BFF36F8FBFF34F8FE6
:100E100062B6856BC46BA54205D3022B03D00020BC
:100E200087F31188F8BD1D46164604461A46134B33
:100E30009847A36CB3F1FF3F04D0A36C0133A364C4
:100E40000120EDE7636D43B1294620460C4B9847DE
:100E500086B101280ED13060E2E7636A0BB9012048
:100E6000DEE704F12400074B98472EB120B10120A2
:100E70003060D5E70120D3E70120D1E71D0A40000B
:100E8000A10A40005519400038B5EFF311844FF026
:100E9000800372B683F31188BFF36F8FBFF34F8F58
:100EA00062B6826BC36B9A4224D2836B0133836335
:100EB000836CB3F1FF3F06D0836C01338364012060
:100EC00084F3118838BD0D46436D3BB100210C4BB6
:100ED00098478DB101280FD12860F1E7436A0BB91B
:100EE0000120EDE72430074B98473DB130B1012098
:100EF0002860E5E70020E3E70120E1E70120DFE7E4
:100F0000A10A4000551940002DE9F04784B004467D
:100F10008A460192994600264D4DDFF864814D4F77
:100F200054E0E568514620464B4B9847B9F1000F15
:100F30001FD1A36B013BA36323683BB123694BB96A
:100F4000464B9847012004B0BDE8F087444B9847D2
:100F50006060F3E704F11000424B98470128EFD19D
:100F60004FF080523B4B1A60BFF34F8FBFF36F8F30
:100F7000E6E7E560636A002BE2D004F12400394B18
:100F800098470028DCD04FF08052324B1A60BFF3F4
:100F90004F8FBFF36F8FD3E7304B98470020D2E7D6
:100FA00002A8C0471BE00023636421E00023A36480
:100FB00022E0A84760682C4B9847284B98472BE0C5
:100FC00020462A4B98472A4B98470126A847A36BEF
:100FD000002BA6D1019B002BDED0002EE0D01F4BB2
:100FE0009847244B9847A847636CB3F1FF3FDAD08A
:100FF000A36CB3F1FF3FD9D0184B984701A902A8C1
:101000001D4B9847E0B9A847A66B144B9847002E94
:10101000D6D12368002BCCD0019904F12400174BC2
:1010200098472046114B9847114B98470028CCD140
:101030004FF080533B60BFF34F8FBFF36F8FC4E718
:1010400020460A4B98470A4B984700207BE700BF91
:101050006908400004ED00E0F50A40008D084000FA
:10106000A51B4000551940007D1A40001D0B400093
:10107000C915400075144000ED194000811840006A
:10108000D519400070B5EFF311854FF0800372B6AB
:1010900083F31188BFF36F8FBFF34F8F62B6836BFB
:1010A0001BB9002085F3118870BD164604460E4B0F
:1010B0009847A36B013BA363636CB3F1FF3F04D07C
:1010C000636C013363640120ECE723690BB90120F1
:1010D000E8E704F11000054B98471EB110B101205C
:1010E0003060DFE70120DDE7F50A400055194000D8
:1010F00010B40B4B1B6853B10123094C54F8332037
:1011000032B10133082BF9D15DF8044B704700234D
:10111000034A42F8331002EBC3035860F4E700BF00
:10112000E0C5402070B504460D4616460F4B984763
:10113000636CB3F1FF3F0BD0A36CB3F1FF3F0AD058
:101140000B4B9847A36B4BB120460A4B984770BD99
:1011500000236364F0E70023A364F1E732462946E5
:1011600004F12400044B9847EEE700BF69084000F3
:101170008D0840001D0B4000ED184000084B1B6817
:101180001B683BB1064B1B68DB68DB685A68054B84
:101190001A6070474FF0FF32024B1A60704700BF71
:1011A000FCC34020A8C4402010B50F4B1B685860FA
:1011B0000E4B1B6898420ED304460D4B18680A4B21
:1011C000196804310B4B98470B4B1B689C4201D2AA
:1011D000094B1C6010BD094B1868034B196804319A
:1011E000044B984710BD00BFF8C34020F0C4402016
:1011F000FCC3402079074000A8C4402000C4402020
:101200002DE9F04F83B000900E4617460193DDF8AC
:1012100030B0DDF834A00E9D002D00F089805820FC
:101220005F4B98470446002800F088800563BA00A9
:10123000A52128465B4B98476FF040433B44256B04
:1012400005EB830525F00705337884F834303378CF
:101250005BB1334604F134020936597802F8011FB4
:1012600013F8011F09B1B342F7D1002784F83D708C
:101270005E46042E28BF0426E662A664E76404F1F5
:1012800004084046DFF87091C84704F11800C847C9
:101290002461C6F10506A6616462276584F854706E
:1012A000019A00992846404B98472060BAF1000FF8
:1012B00001D0CAF800403D4B98473D4A13680133BE
:1012C00013603C4B1B68002B3ED03B4B1B6833B973
:1012D000384B1B68DB6A9B4501D3364B1C60374A91
:1012E0001368013313602364E06A354A11680123EF
:1012F00083400B43136000EB80004146314B03EB0E
:101300008000314B9847314B98472B4B1B68002B83
:1013100040D0284B1B68DB6A9B453FD94FF0805279
:101320002B4B1A60BFF34F8FBFF36F8F012032E05A
:1013300090001B4B9847054618B170E72846254B8F
:1013400098474FF0FF3026E01A4B1C601368012BC2
:10135000C5D11C4E3046204DA84706F11400A847C1
:1013600006F12800A84706F13C00A84706F1500006
:10137000A8471A4F3846A847194E3046A84719487B
:10138000A8471948A8471948A847194B1F60194B87
:101390001E60A4E7012003B0BDE8F08F0120FAE74A
:1013A000A9094000A13640001D084000690840001E
:1013B00068C44020F8C34020C4C4402074C4402006
:1013C0007CC4402004C44020610740008D084000D8
:1013D00004ED00E0190A40004507400080C44020A9
:1013E00094C44020B0C44020DCC44020C8C4402085
:1013F000FCC3402000C440205B07400010B584B00F
:10140000002303930293019300938222114912480F
:10141000124CA047012801D004B010BD104B9847D2
:101420000128F9D14FF0800372B683F31188BFF31E
:101430006F8FBFF34F8F62B64FF0FF32094B1A60C8
:101440000122094B1A600022084B1A60084B98478A
:10145000E2E700BFA47740003917400001124000C6
:101460007D1C4000A8C44020C4C44020F0C44020DB
:1014700059094000024A136801331360704700BFE6
:1014800070C44020014B1868704700BFF0C4402072
:101490002DE9F0473D4B1B68002B6ED13C4B1A6881
:1014A00001321A60D3F800A0BAF1000F1BD0394BFB
:1014B0001B689A4524D20026374B1B68DB6A03EB76
:1014C0008303364A52F82330022B28BF0126344BBF
:1014D0001B68002B4ED0334B1B68002B0CBF3046D3
:1014E0000120BDE8F087304A1168304B1868106061
:1014F00019602F4A1368013313602E4B9847D6E7C3
:101500000026294FDFF8B890DFF8B88021E04FF0CF
:10151000FF32204B1A60CFE71E4A1360CCE704F17C
:101520001800C847E06AD8F800200123834013431D
:10153000C8F8003000EB80002946184B03EB800010
:101540001D4B9847144B1B68E26ADB6A9A4228BF1E
:1015500001263B681B68002BD9D03B68DB68DC6840
:1015600063689A45D8D3251D2846C847A36A002B2F
:10157000D5D1D7E7114B9847ADE7094A1368013336
:1015800013600E4B98470026A5E700BF70C44020AB
:10159000F0C44020A8C44020F8C3402004C4402028
:1015A0006CC44020F4C44020FCC3402000C4402050
:1015B000ACC440207D114000610740006530400010
:1015C000AD0740007CC440202DE9F8432F4B9847DD
:1015D0002F4B1A68013A1A601B68002B50D12D4B13
:1015E0001B6833B32C4EDFF8D4802C4FDFF8D0903B
:1015F000336803B3F368DC6804F11800C047251DA5
:101600002846C047E06A3A680123834013433B60A1
:1016100000EB8000294609EB8000214B9847214BC5
:101620001B68E26ADB6A9A42E2D301221E4B1A600F
:10163000DEE7002425E01D4B1B688BB11B4B1B68AC
:1016400073B11B4D184E194C04E02368013B236015
:1016500023682BB1A8470028F7D001233360F4E7B3
:10166000114B1B68012B01D000240AE04FF080527F
:10167000104B1A60BFF34F8FBFF36F8F012400E050
:1016800000240D4B98472046BDE8F88369084000C8
:1016900070C4402068C44020B0C440207CC44020B6
:1016A00061074000F8C34020F4C440206CC44020CF
:1016B0009114400004ED00E08D084000AD074000AB
:1016C00004C4402010B540B94FF08052124B1A604C
:1016D000BFF34F8FBFF36F8F10BD04460F4B98477A
:1016E0000F4B1B681C440F4B186804300E4B984777
:1016F00048B90C4B1A680D490B68D06A0122824028
:1017000023EA02030B602046094B9847094B984790
:101710000028E1D1D8E700BF04ED00E075144000D7
:10172000F0C44020F8C34020AD0740007CC44020F6
:10173000A9114000C915400080B5DFF88880194E16
:10174000DFF884902AE0184B1B68012B1ED82B6809
:10175000002BF8D0C0473468B847002CF7D0134BA3
:101760009847F368DC68201D114B9847114A1368AD
:10177000013B13602B68013B2B600F4B9847206B9C
:10178000DFF848A0D0472046D047E0E74FF080532D
:10179000C9F80030BFF34F8FBFF36F8F074D084F6D
:1017A000D5E700BFDCC4402004C4402069084000E5
:1017B000AD07400068C440208D08400078C4402038
:1017C000C91540007514400004ED00E0190A4000FE
:1017D000254B1B68002B2ED110B50022234B1A601D
:1017E000234B1B681B6B1A68B2F1A53F27D0204B17
:1017F0001868196834311F4B98471F4B1B68B3FAA0
:1018000083F3DBB2C3F11F031C4A9900C81802EB33
:101810008000446864684460194402460832944277
:101820001AD003EB8303154A02EB83035B68DA6883
:101830000F4B1A6010BD01220C4B1A6070475A689A
:10184000B2F1A53FD3D19A68B2F1A53FCFD1DB6801
:10185000B3F1A53FCBD1D0E760680A46074901EB59
:1018600082025060DDE700BF70C44020F4C4402015
:10187000F8C340204D3040007CC4402004C44020C8
:1018800038B50D46114C21681831114B9847206826
:101890000430104B984740B922680F490B68D06A52
:1018A0000122824023EA02030B60B5F1FF3F05D01D
:1018B0000A4B186828440A4B984738BD034B1968EF
:1018C00004310848084B984738BD00BFF8C3402092
:1018D00079074000AD0740007CC44020F0C44020A0
:1018E000A9114000C8C440206107400070B50E46F1
:1018F0001546114C21681831104B98472068043068
:101900000F4B984740B922680E490B68D06A0122F4
:10191000824023EA02030B60012D05D00A4B1868B0
:1019200030440A4B984770BD034B1968043108488E
:10193000024B984770BD00BFF8C3402061074000CC
:10194000AD0740007CC44020F0C44020A9114000F5
:10195000C8C4402038B5C368DC6804F118052846BF
:10196000144B9847144B1B68E3B9251D2846114BAF
:101970009847E06A114A1168012383400B431360C2
:1019800000EB800029460E4B03EB80000D4B98477F
:101990000D4B1B68E26ADB6A9A4208D901200B4BA7
:1019A000186038BD29460A48064B9847F0E70020E2
:1019B00038BD00BFAD07400070C440207CC440204B
:1019C00004C4402061074000F8C34020F4C4402014
:1019D000B0C44020034B1B680360034B1B6843608B
:1019E000704700BFACC44020F0C4402038B5044666
:1019F0000D46124B9847124B1A682B68B3F1FF3F04
:101A000018D0104909682068884202D061688A426B
:101A100012D26168501A834204D801240A4B9847B5
:101A2000204638BD8A1A13442B602046074B98473E
:101A30000024F3E70024F1E70124EFE76908400000
:101A4000F0C44020ACC440208D084000D5194000AF
:101A50000122014B1A607047F4C44020054B1B68FB
:101A600033B1054B1B68002B0CBF022000207047D0
:101A700001207047C4C4402070C44020002844D0D6
:101A800038B50446C26A21490968C96A8A4214D233
:101A90008169002905DB1D490968C96AC1F1050191
:101AA000816102EB82021A4901EB82026169914273
:101AB00004D0164A1268D26AE26238BD251D284653
:101AC000144B984770B9E36A03EB8301104A52F84C
:101AD00021203AB910480268012101FA03F322EAF1
:101AE00003030360094B1B68D86AE0620A4A116865
:101AF000012383400B43136000EB80002946044B15
:101B000003EB8000054B984738BD7047F8C3402071
:101B100004C44020AD0740007CC440206107400061
:101B2000002833D038B50446C26C013AC264C06A9A
:101B3000A16C88422CD05ABB251D2846154B9847CE
:101B400070B9E36A03EB8301134A52F821203AB9D2
:101B500012480268012101FA03F322EA0303036039
:101B6000A06CE062C0F10503A3610C4A1168012476
:101B700004FA00F30B43136000EB80002946064B88
:101B800003EB8000064B9847204638BD0020704785
:101B9000002038BDAD07400004C440207CC4402074
:101BA00061074000054B1B6823B1044B1A68D36CD6
:101BB0000133D364014B1868704700BFF8C340205D
:101BC00008B54160006191420CD8D21A83699A42EB
:101BD00001D3012008BD011D094B1868094B984726
:101BE000002008BD9A4203D2994201D3012008BDCA
:101BF000011D054B1868034B9847002008BD00BF26
:101C0000FCC4402079074000F8C4402070B5104B58
:101C10009847104B1B6813B10F4B984770BD0F4D81
:101C200028460F4EB0470F4C2046B0470E4B1D6064
:101C30000E4B1C600022102105200D4B9847054BD0
:101C400018600028E8D00B490B4B9847E4E700BF29
:101C5000690840002CC540208D08400000C5402088
:101C60004507400014C54020F8C44020FCC4402073
:101C70003D0C4000AC774000F110400010B584B03E
:101C80000A4B98470A4B1B686BB1002303930293DE
:101C90000193042200924FF4827206490648074CD1
:101CA000A04704B010BD0020FBE700BF0D1C4000A2
:101CB0002CC54020B4774000BD1D400001124000FB
:101CC00030B585B0104C2568DDB11C4600910192FD
:101CD000029005290EDC0D4B984702284FF00003B7
:101CE0000CBF089A1A46694607480068084CA04786
:101CF00005B030BD0023224669462846054CA04762
:101D0000F6E70020F4E700BF2CC540205D1A400034
:101D10008D0C4000F90D40002DE9F04782B080465F
:101D20001F4B984707461F4B1B68984210D3002350
:101D3000C8F800301B4B1F60384602B0BDE8F08782
:101D4000002100910B4652462046174CA04701E067
:101D5000164D174E2B681A68C2B1DB68D3F800A085
:101D6000DC6804F104094846B047636A2046984796
:101D7000E369012BEED1A36953449A45E0D2636035
:101D80002461494628680B4B9847E3E70A4A1068E4
:101D90000649086013600123C8F80030CAE700BF95
:101DA0008514400028C54020C11C4000F8C44020D4
:101DB000AD07400079074000FCC440202DE9F04FFA
:101DC00089B0634E634F644DDFF8B091DFF8B081A6
:101DD00033681A68002A00F0A980DB68D3F800A0F5
:101DE000B84704A85D4B98470446049B002B37D1A5
:101DF000504511D20022AAEB04012868584B98479D
:101E0000584B984770BB4FF08053C9F80030BFF370
:101E10004F8FBFF36F8F25E0524B98473368DB68D5
:101E2000D3F80CB00BF10400C047DBF81C30012BD9
:101E300004D0DBF824305846984713E0DBF818103C
:101E40005346224651445846474CA0470128F0D1FA
:101E5000002100910B4652465846444CA047E8E703
:101E6000404B9847424C06E007990698059B9847D7
:101E7000049B002B09DA00231A4604A92868A0470E
:101E80000028A5D0049B002BEEDBDDF818A0DAF8C3
:101E9000143013B10AF10400C04703A82F4B984730
:101EA000049B092BE7D801A252F823F0D51E40006D
:101EB000D51E4000D51E4000771E4000111F400077
:101EC000251F4000D51E4000D51E4000771E400053
:101ED000111F4000059CDAF81810234602462144E1
:101EE0005046214CA0470128BCD1DAF82430504696
:101EF0009847DAF81C30012BB4D1DAF81820002109
:101F000000910B46059802445046184CA047A9E79B
:101F10000599CAF818100346024601445046124C6F
:101F2000A0479FE75046134B98479BE7B84704A844
:101F30000A4B98470446049B002B91D10E4B1B681B
:101F40001A68B2FA82F252094FF0000A53E700BF52
:101F5000F8C44020751440002CC54020191D4000D5
:101F600025114000C9154000C11B4000C11C4000A4
:101F7000090F4000190A4000FCC4402004ED00E0B5
:101F8000AD07400010B51048104B98473E21002087
:101F90000F4B98470F4CA0470028FCD00E4B98479A
:101FA0000E4A0F4B9A620F4CA0470028FCD002202B
:101FB0000D4B984700200D4B98470D4B9847024812
:101FC000024B984710BD00BF00A3E1110D2D40004A
:101FD000D52740002928400039284000013F18201B
:101FE00000060E4049284000392740007127400074
:101FF000012C40002DE9F04180B90C469046002AA2
:102000000FDD8F18084E094D306821462B68984720
:102010000134BC42F8D14046BDE8F0814FF0FF38B2
:10202000F9E78046F7E700BF28C6402020C64020D9
:102030000138022815D82DE9F0410E4614469AB110
:102040000D46DFF838800C4FD8F8000015F8011B5A
:102050003B68984700280ADBA81B013CF4D1BDE887
:10206000F0814FF0FF3070471046BDE8F0814FF02F
:10207000FF30BDE8F08100BF24C6402028C64020C4
:10208000F8B54FF40042B84B5A60BFF35F8FB74FBB
:102090003846B74DA847B74E40EA06011120B64C66
:1020A000A047B648A847B6490143B648A0473846B6
:1020B000A84740EA0601B448A047B448A84706F13B
:1020C000087606F5403640EA0601B148A047B14817
:1020D000A84740EA0601B048A0476FF06040A84713
:1020E000AE4E40EA0601AE48A0476FF07040A847E8
:1020F000AC4F40EA0701AC48A0476FF07040A847DA
:10210000AA490143AA48A0476FF06040A84740EAA7
:102110000701A848A047A848A84740EA0601A748E1
:10212000A047A74C636A43F4E02363620520A54BF4
:102130009847BFF34F8FBFF36F8FBFF34F8FBFF33E
:102140006F8F0023C4F85032636943F40033636136
:10215000BFF34F8FBFF36F8FD4F88070C7F34E3645
:1021600007F007000430C7F3C907B7FA87FE0EF07F
:102170001F0EBFF34F8F4FF0FF3404FA00FC06FA36
:1021800000F004FA0EF407FA0EFE8D4D3A4673463F
:1021900040EA0301C5F86012013A2344B2F1FF3F5F
:1021A000F6D1013E6044B6F1FF3FEFD1BFF34F8F50
:1021B000834B5A6942F480325A61BFF34F8FBFF3A9
:1021C0006F8F814A81495160A1F580715160BFF3E1
:1021D0004F8FBFF36F8FD3F8902222F00102C3F824
:1021E0009022D3F8942222F00102C3F89422BFF384
:1021F0004F8FBFF36F8F0A20754CA0470B20A0476D
:102200000C20A0471020A0471120A047714A4FF48E
:1022100080731361C2F8A03013636F4B4FF40061F9
:102220005961C3F8A0105966C3F890105965196236
:10223000C3F88410186F20F400601867586F20F4FA
:1022400000605867C3F8C010C3F8D410C3F8B010CA
:102250004FF400111966C3F8901059655962C3F81C
:102260008010186F20F400101867586F20F40010C9
:10227000586759605948D0F8141141F01001C0F85E
:102280001411574910200866C1F89000486548624B
:10229000C1F880000C6F04430C674C6F04434C671B
:1022A00048604FF080511966C3F890105965596223
:1022B000C3F88010186F20F080501867586F0843DB
:1022C000586759604FF000711966C3F8901059654E
:1022D0005962C3F88010186F08431867586F084395
:1022E000586759604FF080411966C3F890105965DE
:1022F0005962C3F88010186F20F080401867586F3B
:102300000843586759604FF000411966C3F89010B0
:1023100059655962C3F88010186F20F000401867A3
:10232000586F0843586759604FF080611966C3F8C9
:10233000901059655962C3F88010186F20F08060C2
:102340001867586F0843586759604FF00061196665
:10235000C3F8901059655962C3F88010186F20F0C7
:10236000006018673EE000BF50180E40FFFF3F00BE
:10237000312440000100000125244000FFFF1F0020
:10238000010023061200400013000020FFFF03009D
:1023900014004020FFFF010015004420010001133C
:1023A0001600004001000003170000600100250333
:1023B0001800007019000080FFFF0F001A0010A025
:1023C00000ED00E019244000000C0E400C08005AFB
:1023D0005928400000120E40000E0E4000800840B8
:1023E00000100E40586F0843586759604FF480330F
:1023F0005361C2F8A0305366C2F8903053655362FF
:10240000C2F88030136F23F480331367536F23F4C3
:1024100080335367F8BD00BF014B5860704700BF61
:1024200090ED00E0014BD8601961704790ED00E03D
:10243000202809D90423202201335200904201D9D7
:102440001E2BF9D9580070470423FBE7016370473E
:10245000416370474264B1F1C05F3AD013D8B1F123
:10246000006F25D0B1F1805F0AD1036F134303677A
:10247000436F416F0B4023EA02034367426070479A
:102480000029FBD17047B1F1205F21D009D8B1F10B
:10249000005FF3D1036F13430367436F1343436735
:1024A000ECE7B1F1405F13D0B1F1605F10D0E5E728
:1024B00010B4016F046FD34321401C4619400167DB
:1024C000436F416F0B402340436742605DF8044B0C
:1024D0007047036F016F0B4023EA02030367436FEA
:1024E00013434367CAE7416412F0010F0DD101663F
:1024F00012F00A0F0BD0016212F0020F09D112F094
:10250000080F08D0C0F8841005E04166F0E741628A
:10251000F2E7C0F8801041610160704710B4019C7F
:1025200041644CB901664BB101654AB9416301612F
:1025300001605DF8044B70474166F4E74165F4E7DC
:102540000163F4E770B582B0054616461C46B1F14A
:10255000005F14D00AD9B1F1405F24D0B1F1605FBF
:1025600021D0B1F1205F17D000201AE0B1F1805FD7
:1025700005D0B1F1C05F02D0B1F1006FF4D13246A5
:102580002846114B984714F0010F02D12E66012006
:1025900007E06E66012004E01A4631460B4B98476F
:1025A000012002B070BD04F001030093C4F3800366
:1025B000B1F1605F14BF0022012231462846044C6D
:1025C000A0470120EDE700BF55244000E72440006C
:1025D0001D25400012F0100F12D0C0F8B01012F0FC
:1025E000200F07D0C0F8D41012F0400F05D0C0F86B
:1025F000C0107047C0F8D010F6E7C0F8C41070479C
:10260000C0F8B410704701647047C06C7047806CAC
:10261000704700002DE9F041044688460E4B98476C
:10262000054620460D4B9847054013D00C4C04F14D
:10263000600603E0B4420DD010345DB1206840451F
:10264000F8D161682942F5D0E3689847636825EAC4
:102650000305EFE7BDE8F0810B2640000F264000A0
:1026600030C54020F8B5184C2668062E2AD84FF001
:10267000000C6446154F04E00134E4B2A446A642BF
:1026800009D3A64625017D598D42F5D107EB0415E6
:102690006D689542F0D10D4D4FEA0E1E05EB0E040C
:1026A00045F80E106260A3600699E1600136664548
:1026B00005D011461A46064B98470020F8BD02493E
:1026C0000E60F6E70120F8BDA0C5402030C54020CF
:1026D000D525400008B50A210148024B984708BD9E
:1026E000000E0E401526400008B50B210148024B94
:1026F000984708BD00100E401526400008B50C2173
:102700000148024B984708BD00120E4015264000B4
:1027100008B510210148024B984708BD00140E402F
:102720001526400008B511210148024B984708BD05
:1027300000160E4015264000032811D0042812D0A0
:1027400002280CBF4FF480710021084A136B23F458
:1027500040730B431363936E13F0080FFBD0704765
:102760004FF44071F1E74FF40071EEE700060E40C0
:10277000174A136B23F0700318431063936E13F022
:10278000080F0AD14FF4805311498A6E12F0080FD6
:1027900003D1013BF9D1012070470D4A136B23F09F
:1027A000030343F002031363936E13F0080F0AD17F
:1027B0004FF4805306498A6E12F0080F05D1013B91
:1027C000F9D101207047002070470020704700BFFA
:1027D00000060E40A0B90E48036A090289B20D4AEC
:1027E0001A400D4B1343194301620246936E13F0D6
:1027F000010FFBD0064A116A084B0B431362704766
:1028000003490B6A064A1A40064B13430B62704792
:1028100000060E40FCFFC8FF010037000000370132
:10282000FCFFC8FE02003701024B986E00F48030B6
:10283000704700BF00060E404FF00052014B9A62F5
:10284000704700BF00060E40024B986E00F0020079
:10285000704700BF00060E403F281ED81F280CD826
:10286000114B9A6901238340934318D0012303FA43
:1028700000F00D4B18610020704720380A4BD3F848
:1028800008210123834093430BD0012303FA00F076
:10289000054BC3F80001002070470120704700205D
:1028A00070470020704700BF00060E4008B5074B78
:1028B000984203D0064B984204D008BD1520054B22
:1028C000984708BD2A20034B9847F6E70080004050
:1028D0000080054059284000436823F4702343607A
:1028E0004368090401F4702119434160704730B412
:1028F00043F69924056915F0020F03D1013CF9D183
:1029000001200CE0446814F0020F06D0120402F417
:10291000702211430BB141F08071C160002030BCC6
:10292000704732B900EB8100036B23F001030363AE
:10293000704700EB8100036B43F0010303637047B2
:1029400032B900EB8100036B23F00203036370478D
:1029500000EB8100036B43F0020303637047042A1A
:1029600003D06AB1082A16D0704700EB8100036BD0
:1029700023F008030363036B43F00403036370470E
:1029800000EB8100036B23F008030363036B23F068
:1029900004030363704700EB8100036B43F00803FB
:1029A0000363E1E700EB81010B6B23F0F0030B63A2
:1029B0000B6B1A430A637047431E1944B1FBF0F0D6
:1029C000431EFE2B94BF00B24FF0FF3070477AB128
:1029D00010B4144600EB81010B6B23F47F430B63AF
:1029E0000A6B42EA04220A6300205DF8044B704738
:1029F0004FF0FF307047436913F0020F02D0C161FE
:102A00000020704701207047436913F0010F03D085
:102A100083690B70002070470120704710B40B01D0
:102A2000934214D9C9004B0803EBC202B2FBF1F286
:102A3000D3085C1E4FF6FE718C4201D9012017E0CD
:102A4000416841F4002141600CE0012010E0590888
:102A500001EBC202B2FBF3F2D3085C1E4FF6FE712B
:102A60008C42F2D8120402F4E0221A4302620020DF
:102A70005DF8044B70470000084BC0F8E4300023B9
:102A800043604362836288230360242303604FF41E
:102A9000807303604FF40023036070470041535577
:102AA00070B505460C4616460F4B984700220F4B53
:102AB0001A60A4B13246216828460D4B9847024659
:102AC00078B96368A1680B4321690B43E1680B4344
:102AD00006490B6069680B436B60104670BD0122AC
:102AE000FBE70122F9E700BF792A4000A4C5402096
:102AF0001D2A400040230360704710230360704785
:102B00008160704740697047436913F0020F04D039
:102B1000C1F30801C161002070470120704743697B
:102B200013F0010F05D08369C3F308030B60002085
:102B3000704701207047FEE700B583B0254B264A59
:102B40009A4210D0254B234A9A420CD2013B9B1A41
:102B500023F00303043313441F4951F8040B42F8D4
:102B6000040B9A42F9D11E4B1E4A9A420AD2013BEB
:102B70009B1A23F0030304331344002142F8041B7F
:102B80009342FBD1184A194B23F07F039360EFF374
:102B90001083B3FA83F35B09019372B6BFF35F8FBF
:102BA0000022134B1A700199124A136843F4700300
:102BB0001360BFF34F8FBFF36F8F29B101220C4B0E
:102BC0001A70BFF35F8F62B60B4B98470B4B984759
:102BD000FEE700BF00004020BC794000D009402043
:102BE00060C64020D009402000ED00E00000400019
:102BF0001C00402088ED00E0F5344000A533400083
:102C00003B4B1B6B03F00303012B1DD083B1022B45
:102C100036D0374B1B6B03F07003702B5FD0344BF7
:102C20001A6B3449C2F302120B68D3400B60704731
:102C3000314B5B6913F0800F14BF4FF400424FF427
:102C4000FA422C4B1A60E4E7294B1B6A13F0807F91
:102C500003D02A4A274B1A60DBE7294A254B1A6022
:102C6000234B1B6A03F07003102B05D0202BD0D10F
:102C7000224A204B1A60CCE7224A1E4B1A60C8E752
:102C80001B4B1B6A13F0807F16D01C4A194B1A602D
:102C9000174B1B6B03F00303022BBAD1144A916A42
:102CA000926A1448C1F30A41036801FB0333D2B2AC
:102CB000B3FBF2F30360ACE7114A0E4B1A600C4B06
:102CC0001B6A03F07003102B05D0202BE0D10B4AB8
:102CD000084B1A60DCE70B4A064B1A60D8E7054A36
:102CE00013680949A1FB03135B081360704700BF19
:102CF00000060E402000402010180E40001BB700B8
:102D000000093D0000127A00ABAAAAAA124B984211
:102D100011D9124B984213D9114B984214D9114B27
:102D2000984215D9104B984294BF4FF004220F4A95
:102D30000F4B1A6070474FF080620D4B1A6070475E
:102D40000C4A0B4B1A6070470B4A094B1A607047CC
:102D50000A4A074B1A607047FF2C3101FF59620283
:102D6000FF869303FFB3C404FFE0F50500050004EC
:102D7000000C0E40000100040002000400030004E7
:102D80000A4B1B6853B1094B1B681A18084991423A
:102D900008DB1046054A106018467047054A034B89
:102DA0001A60F0E74FF0FF30704700BFA8C5402021
:102DB000FCFF452060E840204FF0FF3070474FF4A3
:102DC00000534B600020704701207047002070477F
:102DD000F0B583B005460C46002301932A4B984278
:102DE00013D02A4B984218D0294B98421DD0294B1A
:102DF0009D4222D0284B9D4227D0284B9D422ED069
:102E0000274B9D4235D003B0F0BD1F46254E2146CD
:102E10003846B0470028FAD1E9E71F46214E21463F
:102E20003846B0470028FAD1E4E71F461D4E214638
:102E30003846B0470028FAD1DFE71F46194E214631
:102E40003846B0470028FAD1DAE71E46164D01A9E8
:102E50003046A8470028FAD1019B2370D3E71E46CD
:102E6000114D01A93046A8470028FAD1019B2370D3
:102E7000C9E71E460C4D01A93046A8470028FAD1E3
:102E8000019B2370BFE700BF00080E40000A0E4000
:102E9000001A0E40001C0E4000400240008002401C
:102EA00000C00240092A40001F2B400000B583B03B
:102EB00002A9002341F8043D034B1868034B9847CF
:102EC00003B05DF804FB00BF2CC64020890E400013
:102ED00000B583B002A9002341F8043D034B1868F4
:102EE000034B984703B05DF804FB00BF2CC640209D
:102EF000890E400000B583B002A9002341F8043DCB
:102F0000034B1868034B984703B05DF804FB00BF00
:102F10002CC64020890E400080B58EB0002234219E
:102F200002200E4B98470E4B18600E4B98470C4DE5
:102F30000D4C0E4F02E064200D4B98474FF4FA728F
:102F400001A92868A0470028F5D03B461422192182
:102F50000DF10900074EB047EDE700BF3D0C400002
:102F600030C6402025044000851040000C00402061
:102F7000C51640008D03400070B50C462A4B9842A0
:102F800013D02A4B984219D0294B98421FD0294B75
:102F9000984225D0284B98422BD0284B984231D0CC
:102FA000274B984237D0002070BD1E46254D214644
:102FB0003046A8470028FAD1012070BD1E46214D99
:102FC00021463046A8470028FAD1012070BD1E4690
:102FD0001C4D21463046A8470028FAD1012070BD7B
:102FE0001E46184D21463046A8470028FAD1012038
:102FF00070BD1E46144D21463046A8470028FAD120
:10300000012070BD1E46104D21463046A8470028BD
:10301000FAD1012070BD1E460B4D21463046A8470F
:103020000028FAD1012070BD00080E40000A0E40B1
:10303000001A0E40001C0E4000400240008002407A
:1030400000C00240F7294000092B400008B50A469D
:1030500001460248024B9847FEE700BF1078400047
:10306000453540007047704770B582B00E480F4B31
:10307000984710F0010F01D102B070BD02AC0023DF
:1030800044F8083D084E0A4D21463046A84700281E
:10309000FAD102A9009B01F8013D00231A46054818
:1030A0000068054CA047E7E700800240052B400080
:1030B0001F2B400034C64020F90D400008B50349DD
:1030C000034B9847B0FA80F0400908BDF077400004
:1030D000E9384000F0B58FB0002201210A201E4BD4
:1030E00098471E4B186000240D941E461C4D1D4F22
:1030F0001CE000241AE00EAB1C44002304F8383C0A
:1031000069463846184B98476846184B9847E8B9BF
:1031100017496846174B98470028EAD000231A46FB
:10312000694615480068154CA04700244FF4FA7210
:103130000DEB04013068A8470028F7D00EAB2344FC
:1031400013F8383C0A2BD6D00134EFE70DA90C4B0D
:1031500018680C4B9847DBE73D0C400034C6402014
:1031600085104000F877400045354000BD304000F4
:10317000087840004D3F400030C64020F90D400027
:103180002CC64020890E4000F0B583B01020384C8A
:10319000A0470C20A0470A20A0470A20A0470C20E7
:1031A000A0470B20A047334F09234FF080524FF028
:1031B00020513846304CA047304E09234FF0004292
:1031C0004FF020513046A0472D4D09234FF40022E7
:1031D0004FF020512846A047002301224FF04051D4
:1031E0002846A04700234FF080424FF04051304620
:1031F000A047002304224FF040512248A047224B11
:10320000009350234FF08052102138461F4CA047A6
:103210001F4B009350234FF000420C213046A04733
:103220001C4B009350234FF400220A212846A0474C
:10323000194CC02384F8103384F80A3384F80C3313
:103240004FF080513846154FB8474FF00041304697
:10325000B8474FF400212846B8474FF48033236025
:103260004FF4805323604FF48063236003B0F0BDBC
:103270005928400000140E404525400000120E4021
:10328000000E0E4000100E40AD2E4000652640009E
:10329000D12E4000F52E400000E100E0072640005E
:1032A0002DE9F047032200210120344B9847344B8D
:1032B0001860344B98470126DFF8DCA0DFF8DC907B
:1032C000DFF8DC8009E000234FF4FA7219462C483D
:1032D00000682D4CA04701284ED0002EF3D064206A
:1032E000D04701214846294DA8474FF0804140462C
:1032F000A847274F04213846A8476420D04701211A
:103300004846244CA0474FF080414046A047042146
:103310003846A0476420D04701214846A8474FF0CF
:1033200080414046A84704213846A8476420D0473A
:1033300001214846A0474FF080414046A047042164
:103340003846A0476420D04701214846A8474FF09F
:1033500080414046A84704213846A8476420D0470A
:1033600001214846A0474FF080414046A047042134
:103370003846A047013EA6E70136AEE73D0C4000C7
:103380002CC6402089314000090F400051244000E4
:1033900000100E404D244000C5164000000E0E40A7
:1033A00000120E4080B58AB0374B9847374B98478C
:1033B0000E20374EB047374D374B1D60374A384BDC
:1033C0001A60384A384B1A604FF4E1330493C02333
:1033D00005934FF4006306930024079408940E208D
:1033E000B047324A04A92846314B98472846314B0A
:1033F00098472846304B9847304F3B68214698689D
:103400002F4EB0473B6821465868B04701212846F7
:103410002C4B98472C4B4FF480421A60A02283F823
:103420000E23039402940194009423464FF4806287
:1034300026492748274CA047012802D02648274B79
:103440009847002303930293019300934FF4806203
:10345000234924481F4CA047012802D01E481F4B77
:103460009847002303930293019300934FF48062E3
:103470001D491E48174CA047012802D01648174B7B
:1034800098471B4B9847FEE7851F4000812040006E
:10349000592840000080024028C64020792F400073
:1034A00024C64020D12D400020C6402080D1F00805
:1034B000A12A4000F52A4000FB2A400024004020B9
:1034C0003D374000012B400000E100E0BC774000A8
:1034D000D530400001124000C4774000453540001F
:1034E000E4774000A1324000E8774000192F400007
:1034F000FD13400070B50F4E0F4D761BB61018BF70
:10350000002405D0013455F8043B9847A642F9D170
:103510000A4E0B4D761B04F03BFAB61018BF002480
:1035200006D0013455F8043B9847A642F9D170BD46
:1035300070BD00BF9C7940009C794000A479400098
:103540009C7940000FB400B5074983B004AB08680C
:1035500053F8042B8168019300F044FE03B05DF83A
:1035600004EB04B0704700BF24004020844641EAC9
:10357000000313F003036DD1403A41D351F8043BEB
:1035800040F8043B51F8043B40F8043B51F8043B3D
:1035900040F8043B51F8043B40F8043B51F8043B2D
:1035A00040F8043B51F8043B40F8043B51F8043B1D
:1035B00040F8043B51F8043B40F8043B51F8043B0D
:1035C00040F8043B51F8043B40F8043B51F8043BFD
:1035D00040F8043B51F8043B40F8043B51F8043BED
:1035E00040F8043B51F8043B40F8043B51F8043BDD
:1035F00040F8043B51F8043B40F8043B403ABDD24C
:10360000303211D351F8043B40F8043B51F8043BED
:1036100040F8043B51F8043B40F8043B51F8043BAC
:1036200040F8043B103AEDD20C3205D351F8043B7C
:1036300040F8043B043AF9D2043208D0D2071CBF48
:1036400011F8013B00F8013B01D30B880380604671
:10365000704700BF082A13D38B078DD010F00303E7
:103660008AD0C3F10403D21ADB071CBF11F8013B57
:1036700000F8013B80D331F8023B20F8023B7BE7A6
:10368000043AD9D3013A11F8013B00F8013BF9D2D1
:103690000B7803704B7843708B788370604670476B
:1036A00070B4860746D0541E002A41D0CAB20346E1
:1036B00002E014F1FF343BD303F8012B9D07F8D14E
:1036C000032C2ED9CDB245EA05250F2C45EA054538
:1036D00019D903F110022646103E0F2E42F8105C55
:1036E00042F80C5C42F8085C42F8045C02F11002FB
:1036F000F2D8A4F1100222F00F0204F00F041032ED
:10370000032C13440DD91E462246043A032A46F8D8
:10371000045BFAD8221F22F003020432134404F09F
:1037200003042CB1C9B21C4403F8011B9C42FBD119
:1037300070BC704714460346C2E700BF00290CBFA7
:10374000022200224FF4806300F000B82DE9F0431C
:10375000614C256883B004460F4690461E4615B15D
:10376000AB6B002B64D0B8F1020F06D0B8F1010F9B
:1037700000F29F80002EC0F29C80636ED80734D583
:103780002146284601F0CCFC216B41B104F14003F5
:10379000994202D0284601F041FE00232363B4F988
:1037A0000C300022A26162601A063AD423F44A6304
:1037B00023F00303B8F1020FA3811DD001AB6A46C9
:1037C0002146284602F0C8F8A3891843A081002E9C
:1037D00032D1009E304602F037F9074600286BD000
:1037E000A38943F08003A38128E0A3899905C7D466
:1037F000A06D02F0ADF8C3E70025616E002604F16C
:10380000430243F002030120A660CE07A381226099
:103810002261606101D498053ED5284603B0BDE819
:10382000F0832169284601F0F9FDB4F90C30BDE7B9
:10383000284601F0CDFC96E7002FCBD0AB6B002BD8
:1038400033D0009BB4F90C2027609E421CBF42F489
:103850000062A281B8F1010F04BF42F00102A2810F
:1038600092B212F00803276166610ED0D1071AD513
:10387000656E7642002315F00105A661A36009D0AC
:103880000025284603B0BDE8F083A360656E15F0FF
:103890000105F5D19305C0D4A06D02F05BF8284670
:1038A00003B0BDE8F083A660F0E7284601F090FC85
:1038B000C7E74FF0FF35B0E7DDF80090B14504D021
:1038C000484602F0C1F8074620B9B4F90C304FF071
:1038D000FF3592E74E4683E72400402000000000B9
:1038E000A2EB0300704700BF02780B78012A28BFC3
:1038F0009A42F5D16DE9044540EA0104CDE9026739
:103900006FF0000C4FEA447212B380EA010414F025
:10391000070F6AD100F0070420F0070004F0030548
:1039200021F007014FEAC505F0E8042314F0040F65
:10393000F1E804670CFA05F462EA040266EA040698
:103940000AD063EA0403624667EA0407664603E0B6
:10395000F0E80423F1E8046782FA4CF582EA0604F1
:10396000A4FA8CF46CBB83FA4CF583EA0705A5FA3C
:103970008CF595B950E9022351E9026782FA4CF5BA
:1039800082EA0604A4FA8CF483FA4CF583EA07056C
:10399000A5FA8CF52543DBD09CB92DBAB5FA85F490
:1039A00024F0070427FA04F1DDE9026723FA04F39F
:1039B00003F0FF0001F0FF01FDE80445A0EB01006A
:1039C000704724BAB4FA84F424F0070426FA04F108
:1039D000DDE9026722FA04F202F0FF0001F0FF01C4
:1039E000FDE80445A0EB0100704714F0030F3CD143
:1039F00010F0030428D150F8082B51F8083B82FA44
:103A00004CF582EA0305A5FA8CF55DB950F8042C53
:103A100051F8043C82FA4CF582EA0305A5FA8CF5CC
:103A2000002DE8D02DBAB5FA85F424F0070423FA66
:103A300004F122FA04F202F0FF0001F0FF01FDE8B8
:103A40000445A0EB010070474FEAC40420F00300D6
:103A500050F8082B21F0030151F8083B0CFA04F44C
:103A600062EA040263EA0403C9E710F003041AD00F
:103A7000A1EB040120F00300E40750F8042B06D06A
:103A80000FD28B785FFAA2F4E41A06D12BB1CB786F
:103A90005FFAB2F4E41A00D11BB920465DF8104B6E
:103AA000704701F1040150F8042BCC0721F0030109
:103AB00051F8043B48D824D222F07F4482FA4CF5D6
:103AC00094EA1325A5FA8CF50AD165B951F8043B9F
:103AD00084EA0204B4EB036F0ED150F8042BEBE739
:103AE0004FEA132355E035F07F454DD10878FDE8C6
:103AF0000445C0F1000070474FEA126203F0FF0373
:103B000047E002EA1C4482FA4CF594EA1345A5FA10
:103B10008CF50AD165B951F8043B84EA0204B4EB90
:103B2000034F0CD150F8042BEBE74FEA134330E07E
:103B300015EA1C4528D10B884FEA124229E04FEACA
:103B4000124203EA1C4324E002F0FF0482FA4CF51F
:103B500094EA1365A5FA8CF50AD165B951F8043BCE
:103B600084EA0204B4EB032F09D150F8042BEBE7ED
:103B70004FEA13630DE015F0FF0F05D10B684FEA14
:103B8000122223F07F4304E04FF00000FDE80445DB
:103B9000704712BA1BBA82FA4CF482EA0304A4FA00
:103BA0008CF5B5FA85F402FA04F203FA04F34FEA4D
:103BB0001260FDE80445A0EB1360704700000000B0
:103BC00090F800F06DE9024520F007016FF0000C5D
:103BD00010F0070491F820F040F049804FF0000405
:103BE0006FF00700D1E9002391F840F000F10800E0
:103BF00082FA4CF2A4FA8CF283FA4CF3A2FA8CF318
:103C00004BBBD1E9022382FA4CF200F10800A4FA7E
:103C10008CF283FA4CF3A2FA8CF3E3B9D1E90423D2
:103C200082FA4CF200F10800A4FA8CF283FA4CF309
:103C3000A2FA8CF37BB9D1E9062301F1200182FAC3
:103C40004CF200F10800A4FA8CF283FA4CF3A2FAC9
:103C50008CF3002BC6D0002A04BF04301A4612BAD7
:103C6000B2FA82F2FDE8024500EBD2007047D1E9DA
:103C7000002304F00305C4F100004FEAC50514F069
:103C8000040F91F840F00CFA05F562EA05021CBF3A
:103C900063EA050362464FF00004A9E72DE9F0410D
:103CA0004FF0010E744600254FF0FF362B198B4262
:103CB00000EB06070DD23F5D10F803C0BC452DD2C6
:103CC0001D460124A3EB060E2B198B4200EB0607C1
:103CD000F1D34FF00108C2F800E0444600254FF050
:103CE000FF372B19994200EB070E0ED91EF804E09E
:103CF00010F803C0F44518D91D460124A3EB0708AA
:103D00002B19994200EB070EF0D80137701C87423F
:103D100024BFC2F800803846BDE8F0810CD04FF0D7
:103D2000010E2E4674467544C0E70BD04FF00108D3
:103D30002F4644464544D4E7744512BF01341D461E
:103D40000124B3E7444512BF01341D460124C8E7EE
:103D50002DE9F04FADF2144D164605468B46104640
:103D6000194603AA1C46FFF799FF03AB81460DF2E3
:103D70000C4243F8044F9342FBD14CB1631E721EB8
:103D800004A812F8011F40F8213013F1FF33F8D2D4
:103D900003994A463144304602F07AF900286FD13F
:103DA00009F1FF330093F3188246019323468046BE
:103DB000544658469A4608EB0A073A1A0021284406
:103DC00002F016F9002856D1002F54D0EB1904AA9E
:103DD00013F8013C52F823304BB124B1039A9342BB
:103DE00001D2AAEB0203984400243846E3E74C458D
:103DF00023460AF1FF3E38BF4B46734513D208EB0A
:103E0000030216F803C0A85C84452A4406EB0301AC
:103E100006D02CE011F801CF12F8010F844526D10D
:103E200001337345F6D34C45009980F08980009B9F
:103E300008EB0302019BA85C1B7898422A447FD1BF
:103E4000019804F1FF3B06E010F801CD12F801EDF6
:103E5000F44503D119464B1E9B45F5D101348C42E4
:103E600070D8039C3846A044AAEB0404A3E7C9F128
:103E700001029044B7E700200DF2144DBDE8F08F29
:103E8000A4EB09034B4538BF4B46013309F1FF381A
:103E9000039306EB080358464FF0000ACB469946B9
:103EA0000AEB04073A1A0021284402F0A1F800287E
:103EB000E1D1002FDFD0EB1904AA13F8013C52F82E
:103EC0002330A3BB611E8B4515D20AEB0B0216F8FB
:103ED0000B3015F802E09E452A4406EB0B005B46CA
:103EE00006D027E010F801CF12F801EFF44521D1F8
:103EF00001338B42F6D3B8F1FF3F11D00AEB080231
:103F000099F80010AB5C99422A440FD14B4605E06A
:103F100013F8010D12F8011D884207D1B342F7D101
:103F200005EB0A000DF2144DBDE8F08F039B9A4497
:103F30003846B5E7CBF1010292449A443846AFE7E0
:103F400049468BE705EB080096E700BF0278002A98
:103F500000F001812DE9F04F91F8008085B04446D2
:103F6000B8F1000F16D0864601F1010C012703E0DD
:103F700013F8014B6CB19C46A24214BF002707F016
:103F800001071EF8012F6346002AF1D19CF800308A
:103F9000FBB917B105B0BDE8F08F0E4605464146A6
:103FA0000130ACEB060402F00FFB074688B1012C90
:103FB000F0D02819874294BFC11B01211F2C8B46CA
:103FC0000BD9234632463846FFF7C2FE05B0BDE89E
:103FD000F08F002005B0BDE8F08F03AA21463046DF
:103FE000FFF75CFE0399804602463144304602F0FA
:103FF0004FF8002857D108F1FF330093F31881469A
:10400000054601935846B2466619321A00213844D3
:1040100001F0EEFF0028DCD1002EDAD0C84543467F
:1040200038BF4B469C4212D95A191AF80310B85C93
:1040300081423A440AEB030E06D02CE01EF8010F31
:1040400012F8011F884226D101339C42F6D1C8459F
:10405000009940F28380009BEA18019BB85C1B78B2
:1040600098423A447AD1019809F1FF3B06E010F8F2
:1040700001CD12F801EDF44503D119464B1E5B4505
:10408000F5D109F10109894557D8039B30461D44F4
:10409000A4EB0309B8E7C8F1010215441D444FF031
:1040A00000093046B0E7A4EB0803434538BF434658
:1040B000013308F1FF39039306EB09035846002545
:1040C000BB469A4667193A1A0021584401F090FFFE
:1040D00000287FF47EAF002F3FF47BAF444515D915
:1040E00008EB050216F808301BF8020098425A4403
:1040F00006EB0801434606D023E011F801EF12F861
:10410000010F86451DD101339C42F6D1B9F1FF3F25
:1041100012D005EB09029AF800301BF80210994200
:104120005A4414D1534605E013F8010D12F8011D4D
:1041300088420CD1B342F7D15F46781905B0BDE88B
:10414000F08FC8F1010215441D443846BAE7039BBD
:1041500038461D44B6E70B7813B97047414690E7DF
:10416000002070472DE9F84F4B6E9C0493462FD5E5
:104170009368126853B30E46074602F1080919E91D
:1041800020045FEA9A0817D0043D002401E0A0450E
:1041900010D0324655F8041F384601F0BBF8431CD6
:1041A00004F10104F3D10023CBF80830CBF804303C
:1041B000BDE8F88FDBF808302AF0030AA3EB0A0306
:1041C000CBF8083009F10809002BD8D10020EAE724
:1041D00001F00AFA0023CBF80830CBF80430BDE830
:1041E000F88F00BF2DE9F04FADB01D468B469046CD
:1041F0000793069018B1836B002B00F0F380DBF877
:104200006430BBF90C00DF0781B202D48E0540F1A7
:10421000FC808C040AD4DBF8643040F4005123F4B1
:104220000053ABF80C10CBF8643089B2080740F1AA
:10423000B380DBF81030002B00F0AE8001F01A03E1
:104240000A2B00F0B58000230DF170090B93119338
:1042500010930393CDF83C90CA46CDF810B098F86F
:1042600000304446FBB1252B02D11CE0252B03D0A6
:1042700014F8013F002BF9D1A4EB08059DB1109B68
:10428000119ACAF8008001332A44072BCAF8045057
:10429000119210937ADD002A40F0B084039B1092B3
:1042A0002B44CA4603932378002B00F0E0830020C0
:1042B0004FF000038DF8373004F1010862780546AD
:1042C000064603464FF0FF3408F10108A2F1200131
:1042D000582900F2DE82DFE811F02102DC02DC0264
:1042E0002902DC02DC02DC02DC02DC02DC028902E4
:1042F0009502DC02A200BD02DC029F01A401A40120
:10430000A401A401A401A401A401A401A401DC024C
:10431000DC02DC02DC02DC02DC02DC02DC02DC02AD
:10432000DC02B201DC02DC02DC02DC02DC02DC02C8
:10433000DC02DC02DC02DC029701DC02DC02DC02D3
:10434000DC02DC029B01DC02DC025302DC02DC0248
:10435000DC02DC02DC02DC02DC02DC02DC02DC026D
:104360005A021B02DC02DC02DC026E021B02DC02CF
:10437000DC027302DC02F50182010902D702DC02D1
:104380009A02DC02A700DC02DC022E020AF1080A13
:10439000039B2B44039386E75946069800F0ACFD37
:1043A00018BBBBF80C1001F01A030A2B7FF44BAFBB
:1043B000BBF90E30002BFFF646AFDBF86430DB07AD
:1043C00005D48F0503D4DBF8580001F0C3FA2B465F
:1043D00042465946069800F04DFD039003982DB0D3
:1043E000BDE8F08F00F0F4FE09E7DBF86430D90790
:1043F00004D4BBF80C309A0540F1AA844FF0FF3387
:10440000039303982DB0BDE8F08FDBF8580001F05E
:104410009FFABBF90C0081B2FBE67642079243F0AB
:10442000040398F800204FE708969E0600F1508498
:104430000799DD060A4600F1EF83580640F1EC8348
:104440000E8804310027012207914FF000018DF8FA
:1044500037100025611C00F0168123F080010291C5
:1044600056EA070140F01481002C40F05C83002ADA
:1044700040F0B78313F00103059300F057840DF16A
:10448000B00B30230BF8413D059BA342B8BF234638
:1044900001930DB101330193029B13F002030993C1
:1044A00002D0019B02330193029B13F084030A9311
:1044B00040F01782089B019A9D1A002D40F311824B
:1044C000102D40F39084109B119AC44ED6461027AD
:1044D000A2461946069C07E001F1020C0EF1080EF7
:1044E0000146103D102D11DD481C10320728119295
:1044F0008EE8C0001090EFDD002A40F0E481103D0E
:10450000102D11464FF0010CCE46EDDC54466146AD
:10451000F2462A4407291192CAF80060CAF80450EA
:10452000109100F3EC829DF837500AF1080A481CFC
:10453000002D40F0DE81099B002B00F0F881023253
:104540000EA902230728119210908AE80A0040F36E
:10455000EA81002A40F08C830A9B802B4FF00100F7
:104560001146CA4640F0E781089B019D5E1B002E64
:1045700040F3E181102E9A4D40F35084D446102729
:10458000A246069C07E001F1020E0CF1080C014660
:10459000103E102E11DD481C1032072811928CE8B5
:1045A000A0001090EFDD002A40F09D82103E102EFA
:1045B0004FF0010E1146CC46EDDC5446E246324443
:1045C000BEF1070F11928AE86000CDF840E000F3D9
:1045D00069830AF1080A0EF101007146ABE1089601
:1045E00013F0200240F08C8313F0100140F01A8386
:1045F00013F0400200F0168307980A460146043182
:1046000006880791002720E7089643F01003E7E7A4
:10461000089643F0100308E743F0800398F8002061
:1046200052E6A2F13001002618F8012B06EB8606AF
:1046300001EB4606A2F130010929F5D946E60896B4
:10464000002840F0088443F010039E0600F14C83DC
:10465000DD0600F1F382580640F1F082079DB5F9BE
:1046600000602A46F7170432304639460792002880
:1046700071F10002C0F25D83611C9DF837504FF06C
:1046800001027FF4EAAE56EA070100F04D82029380
:10469000012A00F08C82022A40F05C820B98CB4603
:1046A000330906F00F0143EA07733A091E4617461D
:1046B000435C0BF8013D56EA0703F1D1A9EB0B036C
:1046C0000593E1E6002840F0C083990600F1678376
:1046D000DA0600F1F1805B0640F1EE80079A13687C
:1046E00004320792BDF80C201A80B8E507983D4ABD
:1046F00008960B9206687822302104308DF8392014
:1047000043F00203079000278DF8381002229CE640
:104710000896002899D08DF8375096E798F8002031
:10472000002D7FF4D1AD01202025CDE543F001031C
:1047300098F80020C8E50896002840F0938329499E
:104740000B919F0600F1E8820798DE06014600F112
:1047500070825D0640F16D82043106880791002762
:10476000D80740F1228256EA070100F01E8230216C
:104770008DF8392043F002038DF83810022264E6E8
:104780000896002840F06B8317490B91D9E70799E9
:1047900008960A688DF848204FF000000A468DF808
:1047A0003700043201200190079205900DF1480B6B
:1047B0000293002470E643F0400398F8002083E55C
:1047C00098F800206C2A03BF98F8012043F02003DA
:1047D00008F1010843F0100376E500BF5C78400063
:1047E0006C784000407840002C78400007990E68B3
:1047F0000A46002E02F10402FFF60FAE079298F867
:10480000002061E598F8002001202B255CE5079940
:104810000896D1F800B04FF000028DF837200E1D39
:10482000BBF1000F00F0E582671C00F0C482224655
:1048300000215846019301F0DBFB019B002800F0AA
:10484000E582A0EB0B020592079602939DF8375084
:10485000002419E698F800202A2A08F1010700F040
:10486000E982A2F130010929B8464FF000043FF671
:104870002DAD18F8012B04EB840401EB4404A2F1E4
:1048800030010929F5D921E543F0200398F80020EB
:104890001AE50896002840F0DB82002A00F0E78045
:1048A00001218DF848204FF0000201918DF837204A
:1048B00005910DF1480B7BE7079A136804320792C4
:1048C000039A1A60CBE40FAA04992046FFF74AFC2A
:1048D000002840F039811099119A01F1010CCE465F
:1048E000FFE51099119A481C9DF83750002D3FF4B0
:1048F00022AE01320DF137050121072811921090E7
:10490000CAF80050CAF8041040F30881002A40F0A9
:10491000BC81099B002B3FF41FAE0EAB0222084660
:104920001C931D92CA4601460AF1080A01300A9BEF
:10493000802B3FF419AE059BE41A002C2EDD102CC1
:10494000B34D1EDDD6461026069FDDF810A006E00A
:10495000881C0EF1080E1946103C102C10DD4B1C63
:104960001032072B11928EE860001093F0DD002AC0
:1049700065D1103C102C4FF001001146CE46EEDC04
:10498000F246224407281192CAF80050CAF804409F
:10499000109000F385800AF1080A01300599CAF8E1
:1049A00000B00A4407281192CAF80410109040F38E
:1049B0008280002A40F01881029B1092580735D55A
:1049C000089B01995C1A002C40F3E780CA46102C22
:1049D00040F3188210998F4E069FDDF810B0102515
:1049E00006E0881C0AF1080A1946103C102C11DD5B
:1049F0004B1C1032072B1192CAF80060CAF8045001
:104A00001093EEDD42BB103C102C4FF0010011461C
:104A1000CA46EDDC224407281192CAF80060CAF8A1
:104A20000440109051DD002A40F09B81039B089ABE
:104A300001998A42ACBF9B185B1803934EE00FAA02
:104A400051463846FFF78EFB002840F03F81109911
:104A5000119A481CCE467FE70FAA59463846FFF701
:104A600081FB60B91099119A481CCA46BDE7119B99
:104A7000DDF810B0002B40F0D48100231093DBF858
:104A8000643013F0010FBBF80C3002D19A0540F1ED
:104A9000DE805B063FF5B2AC03982DB0BDE8F08F29
:104AA000002A40F00681059A1D9201231192CDF84B
:104AB00070B01093CA460AF1080A029B590704D540
:104AC000089B01995C1A002C81DC039B08990198D2
:104AD0008142ACBF5B181B18039372BB0023109379
:104AE000CA46FFF7BCBB0FAA04992046FFF73AFB62
:104AF00050BB1099119A01F1010ECC4648E5002AED
:104B000040F040819DF83710002900F01B81012200
:104B10000DF1370110461D921C91CA4601460AF15B
:104B2000080A013007E5029B012A00F09880022A5A
:104B30000DD1029300260027B0E50FAA049906982C
:104B4000FFF710FB0028C9D0DDF810B097E70293FB
:104B500000260027494600E05946F20842EA47721B
:104B6000F80806F0070307461646303356EA0702F0
:104B700001F8013C01F1FF3BEED1029AD6077FF527
:104B80009DAD302B3FF49AAD023930230BF8013C38
:104B9000A9EB010305938B4676E4039B089A8A42AE
:104BA000ACBF9B185B18039398E702224DE4002FDB
:104BB00008BF0A2E52D3CB46304639460A2200237C
:104BC00001F044FF30320BF8012D30463946002306
:104BD0000A2201F03BFF06460F4656EA0703EBD1D7
:104BE0006CE50594CB464FE40FAA04990698FFF7AD
:104BF000B9FA0028A8D1119ACA465EE70FAA04990B
:104C00000698FFF7AFFA00289ED1CA46FFF7C0BB4F
:104C10006C7840005C7840000431166807910122EE
:104C2000002712E40798014604310668079100271F
:104C30000BE40E6804310791002791E507990E688F
:104C40000A46F71704320792304639460FE5DBF87B
:104C5000580000F07FFEBBF80C301AE7029B02936D
:104C60000DF1B00B303601230BF8416D05930BE4C9
:104C70000FAA04990698FFF775FA00287FF464AF2D
:104C80001099119A481CCA4651E60FAA0499069831
:104C9000FFF768FA00287FF457AF1099119A481C63
:104CA000CA4648E4002A40F0918001201146CA46D5
:104CB00041E60FAA04990698FFF754FA00287FF4FA
:104CC00043AF1098119A0130CA4667E6D346D6E63C
:104CD000079E073626F0070202F10801D2E90067B5
:104CE00007910122FFF7B1BB079E073626F00706A2
:104CF000D6E9000106F10802079206460F46B6E41F
:104D0000079E073626F0070202F10801D2E9006784
:104D100007910022FFF799BB079E073626F007018F
:104D200001F108000790D1E9006719E5CB46FFF7CC
:104D3000ABBB2D25764267EB47078DF83750012234
:104D4000FFF788BB099BB3B911460120CA46F2E5BB
:104D5000DBF8580000F0FEFD4FF0FF330393FFF740
:104D600050BB0FAA04990698FFF7FCF900287FF4BE
:104D7000EBAE119AA9E60EAB02221C931D92012004
:104D8000CA46D0E50FAA04990698FFF7EBF9002868
:104D90007FF4DAAE1099119A481CCA46A4E5079A26
:104DA00003991368CD170846043229460792C3E9D0
:104DB0000001FFF754BA584607960293FEF700FF2A
:104DC000002405909DF83750FFF75EBB0FAA0499A9
:104DD0000698FFF7C7F900287FF4B6AE1099119A2C
:104DE000481CCA46A7E51099119A204E0131FFF7D9
:104DF00090BB062C28BF0624059407960194DFF883
:104E000070B0D5E41098194E013003E605949DF872
:104E10003750079602930446FFF736BB8646FFF7E6
:104E2000CEBB06980FAA5946FFF79CF900283FF41D
:104E300024AE24E6079998F801200C68043144EA6E
:104E4000E474B8460791FFF73FBA8DF837503CE459
:104E50008DF8375021E58DF83750FFF7F4BB8DF80A
:104E6000375091E48DF8375069E400BF5C7840001A
:104E7000547840002DE9F0410C46ADF58D6D8989DF
:104E8000666EE589199621F002010646E069ADF8E3
:104E90000C1017464FF48061626AADF80E509846C8
:104EA0001AAD0023079016A8099206930095049561
:104EB0000291059100F048FD43463A466946304666
:104EC000FFF790F9051E07DB3046694600F028F928
:104ED000002818BF4FF0FF35BDF80C305B0603D536
:104EE000A38943F04003A381169800F02FFD2846C4
:104EF0000DF58D6DBDE8F08138B5304B1B6805466A
:104F00000C4613B19A6B002A38D0B4F90C2093B236
:104F100018070CD52069A8B113F001021ED06369EF
:104F200000225B42A361A260F0B1002038BDD90627
:104F30003CD5580726D4206942F00803A3819BB2D0
:104F40000028E9D103F42072B2F5007FE4D02846AE
:104F5000214600F02FFDA3892069DDE7990758BF9E
:104F60006269A2600028E0D1B4F90C301A06DDD5E0
:104F700043F04003A3814FF0FF3038BD184600F0E6
:104F800027F9C2E7216B51B104F14003994204D0E3
:104F9000284600F043FAB4F90C20002323630023D1
:104FA0002069636022F024022060C5E742F04002DD
:104FB00009232B604FF0FF30A28138BD2400402030
:104FC000024B13B1024800F005B870470000000022
:104FD00041524000002301461A46184601F00EBC1B
:104FE000B1F90C309AB22DE9F0410D461107804617
:104FF0003AD46A6843F40063002AAB816FDDAC6A7F
:10500000002C49D000229BB2D8F80060C8F80020DC
:1050100013F4805267D02A6D5F0705D569682B6B42
:10502000521A0BB1EB6BD21A0023E9694046A04734
:10503000441C3CD0B5F90C302A692A6023F4006383
:105040000022AB81DB046A6047D4296BC8F800609A
:1050500011B305F14003994202D0404600F0DEF959
:1050600000202863BDE8F0812E69AEB12C682E6067
:1050700091070CBF6B690023A41BAB600AE02346B9
:1050800032466F6AE9694046B8470028A4EB00043D
:10509000064404DD002CF2DC0020BDE8F081AB8981
:1050A00043F04003AB814FF0FF30BDE8F081D8F80A
:1050B00000401D2CF3D8194BE340DB4313F00103F0
:1050C000EDD1B5F90C206B6022F400632969AB8146
:1050D000DA042960B9D5002CB7D12865B5E7EA6BA9
:1050E000002A8CDCD8E70123E9694046A047431C2D
:1050F000024602D0AB89AC6A8EE7D8F80030002BAC
:10510000F8D01D2B01D0162B02D1C8F80060C3E7E0
:10511000AB8943F04003AB81BDE8F0810100402042
:1051200038B50D46044608B1836BBBB1B5F90C0028
:1051300088B16B6EDB0701D4810517D5204629465F
:10514000FFF74EFF6B6EDA07044602D4AB899B056E
:1051500007D5204638BD0446204638BD00F038F853
:10516000E4E7A86D00F0F6FB204638BDA86D00F01E
:10517000EFFBE3E7014900F0AFBB00BFE56840008B
:1051800010B5002304468181C281036043608360BF
:105190004366036143618361194608225C30FEF770
:1051A0007FFA07480749084A084B2062E4616162B8
:1051B000A262E36204F15800BDE8104000F0C4BBF5
:1051C0004165400065654000A1654000C165400043
:1051D00010B50446124800F0BBFBA26BD2B904F52F
:1051E0003B731048C4F8E8320321C4F8E022E063BE
:1051F000C4F8E41260680421FFF7C2FF012209210C
:10520000A068FFF7BDFF02221221E068FFF7B8FF98
:105210000123A3630248BDE8104000F09BBB00BF20
:1052200044C6402075514000014800F091BB00BFCA
:1052300058C64020014800F08DBB00BF58C6402032
:1052400038B50A4C0A4D641BA4100AD004F18043FF
:10525000013B05EB8305013C55F804399847002CC8
:10526000F9D1BDE8384002F09DBB00BFB4794000E1
:10527000B07940002DE9F04782B080468946144657
:1052800000F054FB012836D04A4604F15C0301A922
:10529000404601F065FA421C064625D0A8B39DF8A9
:1052A00004E000250DF1040A09E023685A1C22607D
:1052B00083F800E00135B54227D215F80AE0A3686B
:1052C000013B002BA360F0DAA769BB42714622467E
:1052D000404602DBBEF10A0FE7D101F0E9F9431CB9
:1052E000E8D102B0BDE8F087A38943F04003A38171
:1052F00002B0BDE8F08709F1FF33FE2BC4D85FFA96
:1053000089FE06468DF804E0CBE7484602B0BDE8CA
:10531000F08700BF30B5536E13F0010FB2F90C30B7
:10532000144683B005469AB201D190051CD590046D
:1053300006D4626E43F4005342F40052A3816266C5
:1053400028462246FFF796FF636EDA07054602D429
:10535000A3899B0502D5284603B030BDA06D00F09F
:10536000F9FA284603B030BDA06D019100F0F0FAC3
:10537000B4F90C3001999AB2D9E700BFF8B5244FBF
:105380000C46064600F018FFBB685D68C4F57E61F8
:105390000F3125F00305294421F47F6121F00F012D
:1053A000A1F58054B4F5805F07DB0021304601F0A1
:1053B000B5F8BB682B44984204D0304600F002FF99
:1053C0000020F8BD6142304601F0A8F801300DD050
:1053D000104BBA6819682D1B45F001053046091BB2
:1053E0005560196000F0EEFE0120F8BD0021304646
:1053F00001F094F8BA68831A0F2BDEDD064C0549DC
:10540000246843F00103001B53600860D5E700BF28
:10541000C0054020ACC54020C8094020002944D028
:105420002DE9F0410D46804600F0C6FE55F8047C9B
:10543000694927F00103A5F10804E2188E68506855
:10544000B24220F003005ED0FE0750600BD455F846
:10545000087CE41B01F1080EA56875453B446DD03E
:10546000E768EF60BD6015186D68ED073ED543F045
:1054700001026260E350B3F5007F17D2DB08581CCD
:105480009A104D6851F83070A7600123934001EBEA
:10549000C0022B43083AE2604B6041F83040FC60A8
:1054A0004046BDE8F04100F08DBE70475A0A042A1C
:1054B00052D89A0902F13907FF0002F13805C819DC
:1054C000CA59083890424FD0516821F003018B42ED
:1054D00032D292689042F7D1C368A060E3609C60CA
:1054E000C4604046BDE8F04100F06CBE95683B4F9B
:1054F000BD42034440D0D068E86043F001028560BB
:105500006260E350B7E7FF07034407D455F8082C5F
:10551000A41A1344A068E268C2609060304A12681E
:1055200043F00100934260608C60B9D32D4B40463C
:105530001968FFF723FFB3E71046CDE71118496854
:10554000C90744D49168D268CA60034443F001009B
:1055500091606060E350A3E7142A16D802F15C075B
:10556000FF0002F15B05AAE7AA1001234D689340F2
:105570002B434B600346B0E743F001024C610C61E2
:10558000E560A5606260E3508AE7542A06D81A0BEA
:1055900002F16F07FF0002F16E0590E7B2F5AA7FF6
:1055A00006D8DA0B02F17807FF0002F1770586E7EB
:1055B00040F25450824206D89A0C02F17D07FF0057
:1055C00002F17C057BE74FF47E777E2577E743F099
:1055D00001016160136063E7C0054020C8054020F9
:1055E000CC094020DCC540209368002B73D02DE906
:1055F000F04F8B8983B00C4619070090164626D5CC
:10560000226922B313F0020035682CD04FF0000954
:10561000B04FC846B246B84543464A4628BF3B4607
:105620000098B8F1000F50D0E169666AB0470028D1
:1056300058DDDAF808301B1A8144A8EB0008CAF8D4
:105640000830002BE7D1002003B0BDE8F08F2146E1
:105650000098FFF751FC002840F03381A38935689A
:1056600013F00200D2D113F0010945D14F46019643
:1056700037B39A05D4F8088040F183804745C34684
:10568000C0F0AB8013F4906F40F0AC802068BA4655
:105690005A46494600F02CFDA2682368A2EB080296
:1056A0005B44A2602360019A9368A3EB0A03D14490
:1056B000A7EB0A079360002BC5D0A389002FD8D190
:1056C000D5F800906F680835D2E7D5F80090D5F886
:1056D000048008359FE70020704721460098FFF7B7
:1056E0001FFD70B3B4F90C3043F040034FF0FF30AE
:1056F000A38103B0BDE8F08F814633464E46A846ED
:105700009A464D464EB380B3206823696269B1451D
:10571000CB4628BFB34698425F4604D9A3681344DA
:105720009B4500F3A68093454BDB1346676AE1690E
:1057300000982A46B847071ED4DDB9EB0709CCD03C
:105740000120DAF80830DB1B3D44F61BCAF80830AC
:10575000002B3FF478AF002ED5D108F1080313E9F0
:10576000600098460833002EF9D032460A212846B8
:1057700000F03EFC002800F0A1800130A0EB0509FC
:10578000C2E720682369984202D863699F425DD2CC
:10579000B84528BFB8464246494600F0A9FCA36870
:1057A0002268A3EB08034244A36022600BB1C24607
:1057B00079E721460098FFF7B3FC002892D1C24652
:1057C00071E75A46294600F093FCA2682368A2EBD1
:1057D0000B025B44A2602360AFE72068B846BA467C
:1057E000BB4655E762692068216902EB4208A0EBDD
:1057F000010A08EBD8780AF101004FEA680838443A
:105800004045424684BF804642465B0544D511462A
:10581000009800F021F98346002855D052462169AE
:10582000FDF7A4FEA38923F4906343F08003A381D2
:105830000BEB0A00A8EB0A03C4F810B0C4F81480FC
:105840002060A360B846BA46BB4621E76FF000412E
:10585000B94228BF39464A4691FBF3F10098666A7F
:1058600003FB01F3E169B047B0F1000A3FF71BAF5A
:1058700038E71A462946019300F03AFC2268019B5A
:1058800000981A4422602146FFF74AFC019B002839
:105890007FF428AF1F4650E7009800F099FC83463C
:1058A0000028C5D1009D21692846FFF7B7FDB4F94E
:1058B0000C300C2223F080032A6015E706F1010961
:1058C00022E74FF0FF30BFE6009A0C231360B4F9D3
:1058D0000C3009E700FCFF7F2DE9F84310F538771D
:1058E0001FD0884606464FF000097D68BC68013D20
:1058F00011D4A389012B05F1FF3508D9B4F90E3075
:1059000001332146304602D0C04749EA00096B1CEA
:1059100004F16804EDD13F68002FE6D14846BDE8A8
:10592000F883B9464846BDE8F88300BF044B054AF2
:105930001B685B6B002B08BF134693F82801704768
:105940002400402054044020704700BF704700BF2F
:10595000704700BF704700BF70B50C46B1F90E101C
:10596000002990B015461E4614DB01AA01F01CF870
:1059700000280FDB029A02F47042A2F50052B2FA3C
:1059800082F252094FF480634FF4006032602B6062
:1059900010B070BDA289002312F08000336004D0E3
:1059A000402218462A6010B070BD4FF480632B600F
:1059B00010B070BD8A8992070B4606D501F14302EB
:1059C00001211A601A6159617047F0B583B001ABCB
:1059D0006A460C460646FFF7BFFF0099054630466B
:1059E00000F03AF8B4F90C30D8B1019A154F00998B
:1059F000F76343F08003A3812060206161611AB9DD
:105A00002B43A38103B0F0BD3046B4F90E1000F073
:105A1000DFFFA0B1A38923F0030343F001031BB20E
:105A2000EEE79A05EED423F0030304F1430243F0BA
:105A300002030121A381226022616161E2E7B4F9DE
:105A40000C30DDE775514000024B0146186800F04C
:105A500003B800BF240040202DE9F04F01F10B06F0
:105A6000162E83B0054640F29E8036F0070600F100
:105A7000BD80B14200F2BA8000F09EFBB6F5FC7F1B
:105A8000C0F09382730A00F0B880042B00F2798191
:105A9000B30903F1390003F1380EC300BF4F3B4493
:105AA000A3F108015C68A14206D10CE0002A80F253
:105AB000AA80E468A14206D0636823F003039A1B1E
:105AC0000F2AF3DD70463C69DFF8E4E2744500F02C
:105AD000AB81636823F003039A1B0F2A00F39081C4
